{"src/contracts/TouristLogChain.sol":{"TouristLogChain":{"abi":[{"anonymous":false,"inputs":[{"indexed":true,"internalType":"uint256","name":"index","type":"uint256"},{"indexed":true,"internalType":"bytes32","name":"blockHash","type":"bytes32"},{"indexed":true,"internalType":"bytes32","name":"previousBlockHash","type":"bytes32"},{"indexed":false,"internalType":"uint256","name":"timestamp","type":"uint256"}],"name":"BlockAdded","type":"event"},{"inputs":[{"internalType":"bytes32","name":"blockHash","type":"bytes32"},{"internalType":"bytes32","name":"previousBlockHash","type":"bytes32"}],"name":"addBlock","outputs":[],"stateMutability":"nonpayable","type":"function"},{"inputs":[],"name":"blockCount","outputs":[{"internalType":"uint256","name":"","type":"uint256"}],"stateMutability":"view","type":"function"},{"inputs":[{"internalType":"uint256","name":"","type":"uint256"}],"name":"blocks","outputs":[{"internalType":"uint256","name":"index","type":"uint256"},{"internalType":"bytes32","name":"blockHash","type":"bytes32"},{"internalType":"bytes32","name":"previousBlockHash","type":"bytes32"},{"internalType":"uint256","name":"timestamp","type":"uint256"}],"stateMutability":"view","type":"function"},{"inputs":[{"internalType":"uint256","name":"index","type":"uint256"}],"name":"getBlock","outputs":[{"components":[{"internalType":"uint256","name":"index","type":"uint256"},{"internalType":"bytes32","name":"blockHash","type":"bytes32"},{"internalType":"bytes32","name":"previousBlockHash","type":"bytes32"},{"internalType":"uint256","name":"timestamp","type":"uint256"}],"internalType":"struct TouristLogChain.BlockRecord","name":"","type":"tuple"}],"stateMutability":"view","type":"function"}],"evm":{"bytecode":{"linkReferences":{},"object":"608060405234801561001057600080fd5b506104e6806100206000396000f3fe608060405234801561001057600080fd5b506004361061004c5760003560e01c806304c075691461005157806307225b4d1461008157806361ce85881461009f578063f25b3f99146100bb575b600080fd5b61006b6004803603810190610066919061029e565b6100ee565b6040516100789190610348565b60405180910390f35b610089610142565b6040516100969190610372565b60405180910390f35b6100b960048036038101906100b491906103b9565b610148565b005b6100d560048036038101906100d0919061029e565b610205565b6040516100e59493929190610408565b60405180910390f35b6100f6610235565b6000808381526020019081526020016000206040518060800160405290816000820154815260200160018201548152602001600282015481526020016003820154815250509050919050565b60015481565b600060015490506040518060800160405280828152602001848152602001838152602001428152506000808381526020019081526020016000206000820151816000015560208201518160010155604082015181600201556060820151816003015590505060018060008282546101bf919061047c565b925050819055508183827ff59faed098afa29ac997cfe39b4f0672e73e5fa5b58805dba39e6f25a97175f9426040516101f89190610372565b60405180910390a4505050565b60006020528060005260406000206000915090508060000154908060010154908060020154908060030154905084565b6040518060800160405280600081526020016000801916815260200160008019168152602001600081525090565b600080fd5b6000819050919050565b61027b81610268565b811461028657600080fd5b50565b60008135905061029881610272565b92915050565b6000602082840312156102b4576102b3610263565b5b60006102c284828501610289565b91505092915050565b6102d481610268565b82525050565b6000819050919050565b6102ed816102da565b82525050565b60808201600082015161030960008501826102cb565b50602082015161031c60208501826102e4565b50604082015161032f60408501826102e4565b50606082015161034260608501826102cb565b50505050565b600060808201905061035d60008301846102f3565b92915050565b61036c81610268565b82525050565b60006020820190506103876000830184610363565b92915050565b610396816102da565b81146103a157600080fd5b50565b6000813590506103b38161038d565b92915050565b600080604083850312156103d0576103cf610263565b5b60006103de858286016103a4565b92505060206103ef858286016103a4565b9150509250929050565b610402816102da565b82525050565b600060808201905061041d6000830187610363565b61042a60208301866103f9565b61043760408301856103f9565b6104446060830184610363565b95945050505050565b7f4e487b7100000000000000000000000000000000000000000000000000000000600052601160045260246000fd5b600061048782610268565b915061049283610268565b92508282019050808211156104aa576104a961044d565b5b9291505056fea26469706673582212205d839b27424707034c803eea77b7f370f292ea6134d5ca4fc2d5eee4c3770f7e64736f6c63430008140033","opcodes":"PUSH1 0x80 PUSH1 0x40 MSTORE CALLVALUE DUP1 ISZERO PUSH2 0x10 JUMPI PUSH1 0x0 DUP1 REVERT JUMPDEST POP PUSH2 0x4E6 DUP1 PUSH2 0x20 PUSH1 0x0 CODECOPY PUSH1 0x0 RETURN INVALID PUSH1 0x80 PUSH1 0x40 MSTORE CALLVALUE DUP1 ISZERO PUSH2 0x10 JUMPI PUSH1 0x0 DUP1 REVERT JUMPDEST POP PUSH1 0x4 CALLDATASIZE LT PUSH2 0x4C JUMPI PUSH1 0x0 CALLDATALOAD PUSH1 0xE0 SHR DUP1 PUSH4 0x4C07569 EQ PUSH2 0x51 JUMPI DUP1 PUSH4 0x7225B4D EQ PUSH2 0x81 JUMPI DUP1 PUSH4 0x61CE8588 EQ PUSH2 0x9F JUMPI DUP1 PUSH4 0xF25B3F99 EQ PUSH2 0xBB JUMPI JUMPDEST PUSH1 0x0 DUP1 REVERT JUMPDEST PUSH2 0x6B PUSH1 0x4 DUP1 CALLDATASIZE SUB DUP2 ADD SWAP1 PUSH2 0x66 SWAP2 SWAP1 PUSH2 0x29E JUMP JUMPDEST PUSH2 0xEE JUMP JUMPDEST PUSH1 0x40 MLOAD PUSH2 0x78 SWAP2 SWAP1 PUSH2 0x348 JUMP JUMPDEST PUSH1 0x40 MLOAD DUP1 SWAP2 SUB SWAP1 RETURN JUMPDEST PUSH2 0x89 PUSH2 0x142 JUMP JUMPDEST PUSH1 0x40 MLOAD PUSH2 0x96 SWAP2 SWAP1 PUSH2 0x372 JUMP JUMPDEST PUSH1 0x40 MLOAD DUP1 SWAP2 SUB SWAP1 RETURN JUMPDEST PUSH2 0xB9 PUSH1 0x4 DUP1 CALLDATASIZE SUB DUP2 ADD SWAP1 PUSH2 0xB4 SWAP2 SWAP1 PUSH2 0x3B9 JUMP JUMPDEST PUSH2 0x148 JUMP JUMPDEST STOP JUMPDEST PUSH2 0xD5 PUSH1 0x4 DUP1 CALLDATASIZE SUB DUP2 ADD SWAP1 PUSH2 0xD0 SWAP2 SWAP1 PUSH2 0x29E JUMP JUMPDEST PUSH2 0x205 JUMP JUMPDEST PUSH1 0x40 MLOAD PUSH2 0xE5 SWAP5 SWAP4 SWAP3 SWAP2 SWAP1 PUSH2 0x408 JUMP JUMPDEST PUSH1 0x40 MLOAD DUP1 SWAP2 SUB SWAP1 RETURN JUMPDEST PUSH2 0xF6 PUSH2 0x235 JUMP JUMPDEST PUSH1 0x0 DUP1 DUP4 DUP2 MSTORE PUSH1 0x20 ADD SWAP1 DUP2 MSTORE PUSH1 0x20 ADD PUSH1 0x0 KECCAK256 PUSH1 0x40 MLOAD DUP1 PUSH1 0x80 ADD PUSH1 0x40 MSTORE SWAP1 DUP2 PUSH1 0x0 DUP3 ADD SLOAD DUP2 MSTORE PUSH1 0x20 ADD PUSH1 0x1 DUP3 ADD SLOAD DUP2 MSTORE PUSH1 0x20 ADD PUSH1 0x2 DUP3 ADD SLOAD DUP2 MSTORE PUSH1 0x20 ADD PUSH1 0x3 DUP3 ADD SLOAD DUP2 MSTORE POP POP SWAP1 POP SWAP2 SWAP1 POP JUMP JUMPDEST PUSH1 0x1 SLOAD DUP2 JUMP JUMPDEST PUSH1 0x0 PUSH1 0x1 SLOAD SWAP1 POP PUSH1 0x40 MLOAD DUP1 PUSH1 0x80 ADD PUSH1 0x40 MSTORE DUP1 DUP3 DUP2 MSTORE PUSH1 0x20 ADD DUP5 DUP2 MSTORE PUSH1 0x20 ADD DUP4 DUP2 MSTORE PUSH1 0x20 ADD TIMESTAMP DUP2 MSTORE POP PUSH1 0x0 DUP1 DUP4 DUP2 MSTORE PUSH1 0x20 ADD SWAP1 DUP2 MSTORE PUSH1 0x20 ADD PUSH1 0x0 KECCAK256 PUSH1 0x0 DUP3 ADD MLOAD DUP2 PUSH1 0x0 ADD SSTORE PUSH1 0x20 DUP3 ADD MLOAD DUP2 PUSH1 0x1 ADD SSTORE PUSH1 0x40 DUP3 ADD MLOAD DUP2 PUSH1 0x2 ADD SSTORE PUSH1 0x60 DUP3 ADD MLOAD DUP2 PUSH1 0x3 ADD SSTORE SWAP1 POP POP PUSH1 0x1 DUP1 PUSH1 0x0 DUP3 DUP3 SLOAD PUSH2 0x1BF SWAP2 SWAP1 PUSH2 0x47C JUMP JUMPDEST SWAP3 POP POP DUP2 SWAP1 SSTORE POP DUP2 DUP4 DUP3 PUSH32 0xF59FAED098AFA29AC997CFE39B4F0672E73E5FA5B58805DBA39E6F25A97175F9 TIMESTAMP PUSH1 0x40 MLOAD PUSH2 0x1F8 SWAP2 SWAP1 PUSH2 0x372 JUMP JUMPDEST PUSH1 0x40 MLOAD DUP1 SWAP2 SUB SWAP1 LOG4 POP POP POP JUMP JUMPDEST PUSH1 0x0 PUSH1 0x20 MSTORE DUP1 PUSH1 0x0 MSTORE PUSH1 0x40 PUSH1 0x0 KECCAK256 PUSH1 0x0 SWAP2 POP SWAP1 POP DUP1 PUSH1 0x0 ADD SLOAD SWAP1 DUP1 PUSH1 0x1 ADD SLOAD SWAP1 DUP1 PUSH1 0x2 ADD SLOAD SWAP1 DUP1 PUSH1 0x3 ADD SLOAD SWAP1 POP DUP5 JUMP JUMPDEST PUSH1 0x40 MLOAD DUP1 PUSH1 0x80 ADD PUSH1 0x40 MSTORE DUP1 PUSH1 0x0 DUP2 MSTORE PUSH1 0x20 ADD PUSH1 0x0 DUP1 NOT AND DUP2 MSTORE PUSH1 0x20 ADD PUSH1 0x0 DUP1 NOT AND DUP2 MSTORE PUSH1 0x20 ADD PUSH1 0x0 DUP2 MSTORE POP SWAP1 JUMP JUMPDEST PUSH1 0x0 DUP1 REVERT JUMPDEST PUSH1 0x0 DUP2 SWAP1 POP SWAP2 SWAP1 POP JUMP JUMPDEST PUSH2 0x27B DUP2 PUSH2 0x268 JUMP JUMPDEST DUP2 EQ PUSH2 0x286 JUMPI PUSH1 0x0 DUP1 REVERT JUMPDEST POP JUMP JUMPDEST PUSH1 0x0 DUP2 CALLDATALOAD SWAP1 POP PUSH2 0x298 DUP2 PUSH2 0x272 JUMP JUMPDEST SWAP3 SWAP2 POP POP JUMP JUMPDEST PUSH1 0x0 PUSH1 0x20 DUP3 DUP5 SUB SLT ISZERO PUSH2 0x2B4 JUMPI PUSH2 0x2B3 PUSH2 0x263 JUMP JUMPDEST JUMPDEST PUSH1 0x0 PUSH2 0x2C2 DUP5 DUP3 DUP6 ADD PUSH2 0x289 JUMP JUMPDEST SWAP2 POP POP SWAP3 SWAP2 POP POP JUMP JUMPDEST PUSH2 0x2D4 DUP2 PUSH2 0x268 JUMP JUMPDEST DUP3 MSTORE POP POP JUMP JUMPDEST PUSH1 0x0 DUP2 SWAP1 POP SWAP2 SWAP1 POP JUMP JUMPDEST PUSH2 0x2ED DUP2 PUSH2 0x2DA JUMP JUMPDEST DUP3 MSTORE POP POP JUMP JUMPDEST PUSH1 0x80 DUP3 ADD PUSH1 0x0 DUP3 ADD MLOAD PUSH2 0x309 PUSH1 0x0 DUP6 ADD DUP3 PUSH2 0x2CB JUMP JUMPDEST POP PUSH1 0x20 DUP3 ADD MLOAD PUSH2 0x31C PUSH1 0x20 DUP6 ADD DUP3 PUSH2 0x2E4 JUMP JUMPDEST POP PUSH1 0x40 DUP3 ADD MLOAD PUSH2 0x32F PUSH1 0x40 DUP6 ADD DUP3 PUSH2 0x2E4 JUMP JUMPDEST POP PUSH1 0x60 DUP3 ADD MLOAD PUSH2 0x342 PUSH1 0x60 DUP6 ADD DUP3 PUSH2 0x2CB JUMP JUMPDEST POP POP POP POP JUMP JUMPDEST PUSH1 0x0 PUSH1 0x80 DUP3 ADD SWAP1 POP PUSH2 0x35D PUSH1 0x0 DUP4 ADD DUP5 PUSH2 0x2F3 JUMP JUMPDEST SWAP3 SWAP2 POP POP JUMP JUMPDEST PUSH2 0x36C DUP2 PUSH2 0x268 JUMP JUMPDEST DUP3 MSTORE POP POP JUMP JUMPDEST PUSH1 0x0 PUSH1 0x20 DUP3 ADD SWAP1 POP PUSH2 0x387 PUSH1 0x0 DUP4 ADD DUP5 PUSH2 0x363 JUMP JUMPDEST SWAP3 SWAP2 POP POP JUMP JUMPDEST PUSH2 0x396 DUP2 PUSH2 0x2DA JUMP JUMPDEST DUP2 EQ PUSH2 0x3A1 JUMPI PUSH1 0x0 DUP1 REVERT JUMPDEST POP JUMP JUMPDEST PUSH1 0x0 DUP2 CALLDATALOAD SWAP1 POP PUSH2 0x3B3 DUP2 PUSH2 0x38D JUMP JUMPDEST SWAP3 SWAP2 POP POP JUMP JUMPDEST PUSH1 0x0 DUP1 PUSH1 0x40 DUP4 DUP6 SUB SLT ISZERO PUSH2 0x3D0 JUMPI PUSH2 0x3CF PUSH2 0x263 JUMP JUMPDEST JUMPDEST PUSH1 0x0 PUSH2 0x3DE DUP6 DUP3 DUP7 ADD PUSH2 0x3A4 JUMP JUMPDEST SWAP3 POP POP PUSH1 0x20 PUSH2 0x3EF DUP6 DUP3 DUP7 ADD PUSH2 0x3A4 JUMP JUMPDEST SWAP2 POP POP SWAP3 POP SWAP3 SWAP1 POP JUMP JUMPDEST PUSH2 0x402 DUP2 PUSH2 0x2DA JUMP JUMPDEST DUP3 MSTORE POP POP JUMP JUMPDEST PUSH1 0x0 PUSH1 0x80 DUP3 ADD SWAP1 POP PUSH2 0x41D PUSH1 0x0 DUP4 ADD DUP8 PUSH2 0x363 JUMP JUMPDEST PUSH2 0x42A PUSH1 0x20 DUP4 ADD DUP7 PUSH2 0x3F9 JUMP JUMPDEST PUSH2 0x437 PUSH1 0x40 DUP4 ADD DUP6 PUSH2 0x3F9 JUMP JUMPDEST PUSH2 0x444 PUSH1 0x60 DUP4 ADD DUP5 PUSH2 0x363 JUMP JUMPDEST SWAP6 SWAP5 POP POP POP POP POP JUMP JUMPDEST PUSH32 0x4E487B7100000000000000000000000000000000000000000000000000000000 PUSH1 0x0 MSTORE PUSH1 0x11 PUSH1 0x4 MSTORE PUSH1 0x24 PUSH1 0x0 REVERT JUMPDEST PUSH1 0x0 PUSH2 0x487 DUP3 PUSH2 0x268 JUMP JUMPDEST SWAP2 POP PUSH2 0x492 DUP4 PUSH2 0x268 JUMP JUMPDEST SWAP3 POP DUP3 DUP3 ADD SWAP1 POP DUP1 DUP3 GT ISZERO PUSH2 0x4AA JUMPI PUSH2 0x4A9 PUSH2 0x44D JUMP JUMPDEST JUMPDEST SWAP3 SWAP2 POP POP JUMP INVALID LOG2 PUSH5 0x6970667358 0x22 SLT KECCAK256 0x5D DUP4 SWAP12 0x27 TIMESTAMP SELFBALANCE SMOD SUB 0x4C DUP1 RETURNDATACOPY 0xEA PUSH24 0xB7F370F292EA6134D5CA4FC2D5EEE4C3770F7E64736F6C63 NUMBER STOP ADDMOD EQ STOP CALLER "},"methodIdentifiers":{"addBlock(bytes32,bytes32)":"61ce8588","blockCount()":"07225b4d","blocks(uint256)":"f25b3f99","getBlock(uint256)":"04c07569"}}}}}