{
  "_format": "hh-sol-artifact-1",
  "contractName": "TouristLogChain",
  "sourceName": "src/contracts/TouristLogChain.sol",
  "abi": [
    {
      "anonymous": false,
      "inputs": [
        {
          "indexed": true,
          "internalType": "uint256",
          "name": "index",
          "type": "uint256"
        },
        {
          "indexed": true,
          "internalType": "bytes32",
          "name": "blockHash",
          "type": "bytes32"
        },
        {
          "indexed": true,
          "internalType": "bytes32",
          "name": "previousBlockHash",
          "type": "bytes32"
        },
        {
          "indexed": false,
          "internalType": "uint256",
          "name": "timestamp",
          "type": "uint256"
        }
      ],
      "name": "BlockAdded",
      "type": "event"
    },
    {
      "inputs": [
        {
          "internalType": "bytes32",
          "name": "blockHash",
          "type": "bytes32"
        },
        {
          "internalType": "bytes32",
          "name": "previousBlockHash",
          "type": "bytes32"
        }
      ],
      "name": "addBlock",
      "outputs": [],
      "stateMutability": "nonpayable",
      "type": "function"
    },
    {
      "inputs": [],
      "name": "blockCount",
      "outputs": [
        {
          "internalType": "uint256",
          "name": "",
          "type": "uint256"
        }
      ],
      "stateMutability": "view",
      "type": "function"
    },
    {
      "inputs": [
        {
          "internalType": "uint256",
          "name": "",
          "type": "uint256"
        }
      ],
      "name": "blocks",
      "outputs": [
        {
          "internalType": "uint256",
          "name": "index",
          "type": "uint256"
        },
        {
          "internalType": "bytes32",
          "name": "blockHash",
          "type": "bytes32"
        },
        {
          "internalType": "bytes32",
          "name": "previousBlockHash",
          "type": "bytes32"
        },
        {
          "internalType": "uint256",
          "name": "timestamp",
          "type": "uint256"
        }
      ],
      "stateMutability": "view",
      "type": "function"
    },
    {
      "inputs": [
        {
          "internalType": "uint256",
          "name": "index",
          "type": "uint256"
        }
      ],
      "name": "getBlock",
      "outputs": [
        {
          "components": [
            {
              "internalType": "uint256",
              "name": "index",
              "type": "uint256"
            },
            {
              "internalType": "bytes32",
              "name": "blockHash",
              "type": "bytes32"
            },
            {
              "internalType": "bytes32",
              "name": "previousBlockHash",
              "type": "bytes32"
            },
            {
              "internalType": "uint256",
              "name": "timestamp",
              "type": "uint256"
            }
          ],
          "internalType": "struct TouristLogChain.BlockRecord",
          "name": "",
          "type": "tuple"
        }
      ],
      "stateMutability": "view",
      "type": "function"
    }
  ],
  "bytecode": "0x608060405234801561001057600080fd5b506104e6806100206000396000f3fe608060405234801561001057600080fd5b506004361061004c5760003560e01c806304c075691461005157806307225b4d1461008157806361ce85881461009f578063f25b3f99146100bb575b600080fd5b61006b6004803603810190610066919061029e565b6100ee565b6040516100789190610348565b60405180910390f35b610089610142565b6040516100969190610372565b60405180910390f35b6100b960048036038101906100b491906103b9565b610148565b005b6100d560048036038101906100d0919061029e565b610205565b6040516100e59493929190610408565b60405180910390f35b6100f6610235565b6000808381526020019081526020016000206040518060800160405290816000820154815260200160018201548152602001600282015481526020016003820154815250509050919050565b60015481565b600060015490506040518060800160405280828152602001848152602001838152602001428152506000808381526020019081526020016000206000820151816000015560208201518160010155604082015181600201556060820151816003015590505060018060008282546101bf919061047c565b925050819055508183827ff59faed098afa29ac997cfe39b4f0672e73e5fa5b58805dba39e6f25a97175f9426040516101f89190610372565b60405180910390a4505050565b60006020528060005260406000206000915090508060000154908060010154908060020154908060030154905084565b6040518060800160405280600081526020016000801916815260200160008019168152602001600081525090565b600080fd5b6000819050919050565b61027b81610268565b811461028657600080fd5b50565b60008135905061029881610272565b92915050565b6000602082840312156102b4576102b3610263565b5b60006102c284828501610289565b91505092915050565b6102d481610268565b82525050565b6000819050919050565b6102ed816102da565b82525050565b60808201600082015161030960008501826102cb565b50602082015161031c60208501826102e4565b50604082015161032f60408501826102e4565b50606082015161034260608501826102cb565b50505050565b600060808201905061035d60008301846102f3565b92915050565b61036c81610268565b82525050565b60006020820190506103876000830184610363565b92915050565b610396816102da565b81146103a157600080fd5b50565b6000813590506103b38161038d565b92915050565b600080604083850312156103d0576103cf610263565b5b60006103de858286016103a4565b92505060206103ef858286016103a4565b9150509250929050565b610402816102da565b82525050565b600060808201905061041d6000830187610363565b61042a60208301866103f9565b61043760408301856103f9565b6104446060830184610363565b95945050505050565b7f4e487b7100000000000000000000000000000000000000000000000000000000600052601160045260246000fd5b600061048782610268565b915061049283610268565b92508282019050808211156104aa576104a961044d565b5b9291505056fea26469706673582212205d839b27424707034c803eea77b7f370f292ea6134d5ca4fc2d5eee4c3770f7e64736f6c63430008140033",
  "linkReferences": {},
  "deployedLinkReferences": {}
}