{
  "_format": "hh-sol-artifact-1",
  "contractName": "TouristSafety",
  "sourceName": "src/contracts/TouristSafety.sol",
  "abi": [
    {
      "anonymous": false,
      "inputs": [
        {
          "indexed": false,
          "internalType": "address",
          "name": "user",
          "type": "address"
        },
        {
          "indexed": false,
          "internalType": "uint256",
          "name": "timestamp",
          "type": "uint256"
        },
        {
          "indexed": false,
          "internalType": "string",
          "name": "location",
          "type": "string"
        }
      ],
      "name": "EmergencyLogged",
      "type": "event"
    },
    {
      "anonymous": false,
      "inputs": [
        {
          "indexed": false,
          "internalType": "address",
          "name": "user",
          "type": "address"
        },
        {
          "indexed": false,
          "internalType": "address",
          "name": "police",
          "type": "address"
        }
      ],
      "name": "PoliceAccessGranted",
      "type": "event"
    },
    {
      "anonymous": false,
      "inputs": [
        {
          "indexed": false,
          "internalType": "address",
          "name": "user",
          "type": "address"
        }
      ],
      "name": "UserRegistered",
      "type": "event"
    },
    {
      "inputs": [
        {
          "internalType": "string",
          "name": "encryptedLocation",
          "type": "string"
        },
        {
          "internalType": "string",
          "name": "threatLevel",
          "type": "string"
        }
      ],
      "name": "addEmergencyLog",
      "outputs": [],
      "stateMutability": "nonpayable",
      "type": "function"
    },
    {
      "inputs": [
        {
          "internalType": "address",
          "name": "policeStation",
          "type": "address"
        }
      ],
      "name": "grantPoliceAccess",
      "outputs": [],
      "stateMutability": "nonpayable",
      "type": "function"
    },
    {
      "inputs": [
        {
          "internalType": "address",
          "name": "",
          "type": "address"
        },
        {
          "internalType": "uint256",
          "name": "",
          "type": "uint256"
        }
      ],
      "name": "logs",
      "outputs": [
        {
          "internalType": "uint256",
          "name": "timestamp",
          "type": "uint256"
        },
        {
          "internalType": "string",
          "name": "location",
          "type": "string"
        },
        {
          "internalType": "string",
          "name": "threatLevel",
          "type": "string"
        }
      ],
      "stateMutability": "view",
      "type": "function"
    },
    {
      "inputs": [
        {
          "internalType": "address",
          "name": "",
          "type": "address"
        }
      ],
      "name": "policeAccess",
      "outputs": [
        {
          "internalType": "address",
          "name": "",
          "type": "address"
        }
      ],
      "stateMutability": "view",
      "type": "function"
    },
    {
      "inputs": [
        {
          "internalType": "string",
          "name": "name",
          "type": "string"
        },
        {
          "internalType": "string",
          "name": "encryptedKey",
          "type": "string"
        }
      ],
      "name": "registerUser",
      "outputs": [],
      "stateMutability": "nonpayable",
      "type": "function"
    },
    {
      "inputs": [
        {
          "internalType": "address",
          "name": "",
          "type": "address"
        }
      ],
      "name": "users",
      "outputs": [
        {
          "internalType": "string",
          "name": "name",
          "type": "string"
        },
        {
          "internalType": "string",
          "name": "encryptedPrivateKey",
          "type": "string"
        },
        {
          "internalType": "bool",
          "name": "registered",
          "type": "bool"
        }
      ],
      "stateMutability": "view",
      "type": "function"
    }
  ],
  "bytecode": "0x608060405234801561001057600080fd5b506110e8806100206000396000f3fe608060405234801561001057600080fd5b50600436106100625760003560e01c80631d2e4afd14610067578063a161749614610083578063a87430ba1461009f578063c9a010d0146100d1578063ecf099eb146100ed578063ee7bafbb1461011d575b600080fd5b610081600480360381019061007c91906109bf565b61014f565b005b61009d600480360381019061009891906109bf565b6102c4565b005b6100b960048036038101906100b49190610a95565b61044c565b6040516100c893929190610b5c565b60405180910390f35b6100eb60048036038101906100e69190610a95565b610593565b005b61010760048036038101906101029190610a95565b6106db565b6040516101149190610bb0565b60405180910390f35b61013760048036038101906101329190610c01565b61070e565b60405161014693929190610c50565b60405180910390f35b6000803373ffffffffffffffffffffffffffffffffffffffff1673ffffffffffffffffffffffffffffffffffffffff16815260200190815260200160002060020160009054906101000a900460ff16156101de576040517f08c379a00000000000000000000000000000000000000000000000000000000081526004016101d590610ce1565b60405180910390fd5b6040518060600160405280838152602001828152602001600115158152506000803373ffffffffffffffffffffffffffffffffffffffff1673ffffffffffffffffffffffffffffffffffffffff168152602001908152602001600020600082015181600001908161024f9190610f0d565b5060208201518160010190816102659190610f0d565b5060408201518160020160006101000a81548160ff0219169083151502179055509050507f54db7a5cb4735e1aac1f53db512d3390390bb6637bd30ad4bf9fc98667d9b9b9336040516102b89190610bb0565b60405180910390a15050565b6000803373ffffffffffffffffffffffffffffffffffffffff1673ffffffffffffffffffffffffffffffffffffffff16815260200190815260200160002060020160009054906101000a900460ff16610352576040517f08c379a00000000000000000000000000000000000000000000000000000000081526004016103499061102b565b60405180910390fd5b600160003373ffffffffffffffffffffffffffffffffffffffff1673ffffffffffffffffffffffffffffffffffffffff16815260200190815260200160002060405180606001604052804281526020018481526020018381525090806001815401808255809150506001900390600052602060002090600302016000909190919091506000820151816000015560208201518160010190816103f49190610f0d565b50604082015181600201908161040a9190610f0d565b5050507f3019fef14fcf46001ecfab0dd4eb8a8048ce070d4c62423f8cf448f08c057b613342846040516104409392919061104b565b60405180910390a15050565b600060205280600052604060002060009150905080600001805461046f90610d30565b80601f016020809104026020016040519081016040528092919081815260200182805461049b90610d30565b80156104e85780601f106104bd576101008083540402835291602001916104e8565b820191906000526020600020905b8154815290600101906020018083116104cb57829003601f168201915b5050505050908060010180546104fd90610d30565b80601f016020809104026020016040519081016040528092919081815260200182805461052990610d30565b80156105765780601f1061054b57610100808354040283529160200191610576565b820191906000526020600020905b81548152906001019060200180831161055957829003601f168201915b5050505050908060020160009054906101000a900460ff16905083565b6000803373ffffffffffffffffffffffffffffffffffffffff1673ffffffffffffffffffffffffffffffffffffffff16815260200190815260200160002060020160009054906101000a900460ff16610621576040517f08c379a00000000000000000000000000000000000000000000000000000000081526004016106189061102b565b60405180910390fd5b80600260003373ffffffffffffffffffffffffffffffffffffffff1673ffffffffffffffffffffffffffffffffffffffff16815260200190815260200160002060006101000a81548173ffffffffffffffffffffffffffffffffffffffff021916908373ffffffffffffffffffffffffffffffffffffffff1602179055507f8af3348864ea129aabb33ef134a1fd7306f0045e9818756bf38a09afb30b66a933826040516106d0929190611089565b60405180910390a150565b60026020528060005260406000206000915054906101000a900473ffffffffffffffffffffffffffffffffffffffff1681565b6001602052816000526040600020818154811061072a57600080fd5b90600052602060002090600302016000915091505080600001549080600101805461075490610d30565b80601f016020809104026020016040519081016040528092919081815260200182805461078090610d30565b80156107cd5780601f106107a2576101008083540402835291602001916107cd565b820191906000526020600020905b8154815290600101906020018083116107b057829003601f168201915b5050505050908060020180546107e290610d30565b80601f016020809104026020016040519081016040528092919081815260200182805461080e90610d30565b801561085b5780601f106108305761010080835404028352916020019161085b565b820191906000526020600020905b81548152906001019060200180831161083e57829003601f168201915b5050505050905083565b6000604051905090565b600080fd5b600080fd5b600080fd5b600080fd5b6000601f19601f8301169050919050565b7f4e487b7100000000000000000000000000000000000000000000000000000000600052604160045260246000fd5b6108cc82610883565b810181811067ffffffffffffffff821117156108eb576108ea610894565b5b80604052505050565b60006108fe610865565b905061090a82826108c3565b919050565b600067ffffffffffffffff82111561092a57610929610894565b5b61093382610883565b9050602081019050919050565b82818337600083830152505050565b600061096261095d8461090f565b6108f4565b90508281526020810184848401111561097e5761097d61087e565b5b610989848285610940565b509392505050565b600082601f8301126109a6576109a5610879565b5b81356109b684826020860161094f565b91505092915050565b600080604083850312156109d6576109d561086f565b5b600083013567ffffffffffffffff8111156109f4576109f3610874565b5b610a0085828601610991565b925050602083013567ffffffffffffffff811115610a2157610a20610874565b5b610a2d85828601610991565b9150509250929050565b600073ffffffffffffffffffffffffffffffffffffffff82169050919050565b6000610a6282610a37565b9050919050565b610a7281610a57565b8114610a7d57600080fd5b50565b600081359050610a8f81610a69565b92915050565b600060208284031215610aab57610aaa61086f565b5b6000610ab984828501610a80565b91505092915050565b600081519050919050565b600082825260208201905092915050565b60005b83811015610afc578082015181840152602081019050610ae1565b60008484015250505050565b6000610b1382610ac2565b610b1d8185610acd565b9350610b2d818560208601610ade565b610b3681610883565b840191505092915050565b60008115159050919050565b610b5681610b41565b82525050565b60006060820190508181036000830152610b768186610b08565b90508181036020830152610b8a8185610b08565b9050610b996040830184610b4d565b949350505050565b610baa81610a57565b82525050565b6000602082019050610bc56000830184610ba1565b92915050565b6000819050919050565b610bde81610bcb565b8114610be957600080fd5b50565b600081359050610bfb81610bd5565b92915050565b60008060408385031215610c1857610c1761086f565b5b6000610c2685828601610a80565b9250506020610c3785828601610bec565b9150509250929050565b610c4a81610bcb565b82525050565b6000606082019050610c656000830186610c41565b8181036020830152610c778185610b08565b90508181036040830152610c8b8184610b08565b9050949350505050565b7f416c726561647920726567697374657265640000000000000000000000000000600082015250565b6000610ccb601283610acd565b9150610cd682610c95565b602082019050919050565b60006020820190508181036000830152610cfa81610cbe565b9050919050565b7f4e487b7100000000000000000000000000000000000000000000000000000000600052602260045260246000fd5b60006002820490506001821680610d4857607f821691505b602082108103610d5b57610d5a610d01565b5b50919050565b60008190508160005260206000209050919050565b60006020601f8301049050919050565b600082821b905092915050565b600060088302610dc37fffffffffffffffffffffffffffffffffffffffffffffffffffffffffffffffff82610d86565b610dcd8683610d86565b95508019841693508086168417925050509392505050565b6000819050919050565b6000610e0a610e05610e0084610bcb565b610de5565b610bcb565b9050919050565b6000819050919050565b610e2483610def565b610e38610e3082610e11565b848454610d93565b825550505050565b600090565b610e4d610e40565b610e58818484610e1b565b505050565b5b81811015610e7c57610e71600082610e45565b600181019050610e5e565b5050565b601f821115610ec157610e9281610d61565b610e9b84610d76565b81016020851015610eaa578190505b610ebe610eb685610d76565b830182610e5d565b50505b505050565b600082821c905092915050565b6000610ee460001984600802610ec6565b1980831691505092915050565b6000610efd8383610ed3565b9150826002028217905092915050565b610f1682610ac2565b67ffffffffffffffff811115610f2f57610f2e610894565b5b610f398254610d30565b610f44828285610e80565b600060209050601f831160018114610f775760008415610f65578287015190505b610f6f8582610ef1565b865550610fd7565b601f198416610f8586610d61565b60005b82811015610fad57848901518255600182019150602085019450602081019050610f88565b86831015610fca5784890151610fc6601f891682610ed3565b8355505b6001600288020188555050505b505050505050565b7f55736572206e6f74207265676973746572656400000000000000000000000000600082015250565b6000611015601383610acd565b915061102082610fdf565b602082019050919050565b6000602082019050818103600083015261104481611008565b9050919050565b60006060820190506110606000830186610ba1565b61106d6020830185610c41565b818103604083015261107f8184610b08565b9050949350505050565b600060408201905061109e6000830185610ba1565b6110ab6020830184610ba1565b939250505056fea264697066735822122076f729f75c958d1f3b05f2fc299c5551f20bdaaf07b56be40736b72ddf3e159664736f6c63430008140033",
  "linkReferences": {},
  "deployedLinkReferences": {}
}